:020000040000FA
:2000000000500020E9000000E1000000C9000000E5000000E5000000E5000000000000002E
:20002000000000000000000000000000E5000000E500000000000000E5000000E50000002C
:2000400015180000E500000081CB0000E5000000250F00009D140000E5000000E5000000AE
:20006000E5000000A9CB0000E5000000E5000000E5000000E5000000E5000000E5000000C9
:20008000E5000000E5000000E5000000E5000000E5000000E5000000E5000000E500000038
:2000A000E5000000E5000000E5000000E5000000E5000000E5000000E5000000E500000018
:2000C000E5000000B5270000044B1A68B2F5806F03D01B689B0500D4FEE7704728ED00E09D
:2000E000FEE700BFFEE700BF08B50AF017FA104A104B9A420DD2D0430F4918440B4620F058
:2001000003000430084453F8041B834242F8041BF9D10A480A494FF000028842B8BF40F8AB
:20012000042BFADB00F010F9FFF7CEFF08BD00BF0000002070020020B0E2000070020020A5
:200140001233002030B5048889B005466CB14E2C06D13F4803F016FA10BB012009B030BDBB
:2001600000230380032009B030BD3A4800F0FAFF37484FF4807103F0E7F940F2D24136485C
:200180000B4600902246354807F048F9344B1968344802F055FB4E2301202B8009B030BDC0
:2001A0002F4C2B4803F0DAF9216889B1012917D00229EDD12C4800F0D5FF21682B4802F0A8
:2001C0003FFB21682A4802F03BFB01212160DFE7284802F035FB284800F0C4FF2168E5E74F
:2001E0002648039100F0BEFF0399084600F08AFA234800F0B7FF234800F0B4FF40F2FF2181
:2002000000234FF480722048ADF81010ADF81230ADF81430ADF81630ADF81830ADF81A30C2
:20022000ADF81C30ADF81E2000F09CFF174800F099FF1749042204AB084807F0E1F80223FE
:2002400019461448236002F0FBFA2168A0E700BFA0020020FCDC000099020000B0020020A3
:20026000D802002020DD0000E8DD0000F8DD000014DE000030DD00003CDD00004CDD0000AC
:200280005CDD000070DD00008CDD0000ACDD0000C0DD0000C8DD000038B50D48BDF810108D
:2002A000BDF8183002F0CCFA0A4A012413680A4D23441946094813602C6002F0C1FA2968EA
:2002C000074802F0BDFA2046BDE8384000F010BA34DE0000D4020020D80200206CDE00009D
:2002E00080DE0000F0B5002706463C463D4683B0304600F0FDF90195019B9C4206DD00BF42
:20030000019B01330193019B9C42F8DC304600F0F9F90195019BC4F5C874A34206DA00BF28
:20032000019B01330193019BA342F8DB0137B7F5487F06D0B7F5C87FCCBFC7F548743C460C
:20034000D6E703B0F0BD00BF2DE9F041744C86B02368744801215B689847236801210A467C
:200360001B687048984709F0A9FF01F06BFA01F003FA00F0D7FB01F03BFA00F0AFF96A494B
:200380006A486B4A012303600B6018461368FFF7A9FF09F097FF00F037FD00F063FC03F098
:2003A0009FFA00F025FE03F0C9F941F2342002F017F901F03FF803F037FB5E4800F0D2FEA0
:2003C00000214BF2AC725C4802F03AFA5B4800F0C9FE09F0D3FE5A4C5A4D10F0040F14BF80
:2003E000A046A84609F0D2FE01280CBF26462E4609F0C4FE10F0020F14BF27462F4609F012
:20040000BDFE10F0080F08BF2C4632463B46414600944D4802F014FA00214C4803F034FA52
:2004200002F042FF02F0D8FF0220FFF75BFF484802F006FA474B484C186800F093FE474816
:2004400002F0FEF9464B186800F08CFE454802F0F7F92168444802F0F3F9E469A04720B1C1
:20046000A0470146414802F0EBF90A2000F072FE00260BF02FF804A808213D4D3D4F039699
:2004800000F0A8FE9DF817309DF8164004AA03CA43EA0424D7F82C802860696002204AF601
:2004A000CD31C04721460320C04719210120C047082204A97B6B0B209847BB6A03A901208B
:2004C000984703992C4802F0BBF92C4B21462C481C8002F0B5F92B4B6A6829685A601960ED
:2004E0000BF068F93146284803F0CEF90420FFF7F9FE3146254803F0C7F9254802F07EFE7C
:2005000000F084FD0820FFF7EDFE03F031F9044600F094FD14F0FF0FF7D100F0F3FFF4E7E2
:20052000D801001000400340080009400C4009402C200940B0DE0000D4DE0000ECDE0000CA
:20054000A8DE0000ACDE000008DF0000EC0000203CDF00007CE1000024E2000044DF0000F7
:20056000FCE100004CDF000054DF000058DF0000B832002084E000007CDF00004C280020AC
:2005800090DF0000942800208C01002010000020F4DC00002DE9F04104880646772C30D0A1
:2005A0007E2C27D024B1002303800320BDE8F08103F0BCF82F4F304B304D3A6818702C6013
:2005C000002A45D02346A0462D4C04F8038093688020002198472B68013357F823202B6016
:2005E000002AF2D1DBB2274A1370772333800120BDE8F081204B1B788B4219D00120BDE88F
:20060000F081DFF880801D4D98F800201E4F002393423B602B6007DA194CE156002919DB53
:20062000013393422B60F7DB3B68002BEFD1DCE7124D134CDFF84C80134F2B683A68E05CCF
:20064000511C00F07F0098F80020E0543960E7E71346C8E70849074A097852F8232000209B
:2006600003F0E6F80028E8D17E2333800120BDE8F08100BF200000200E330020E0020020DB
:20068000802800205C280020DC02002010B40F4B1C7864B10E4A1368984214D0002303E092
:2006A00052F8041F88420CD00133A342F8D1094A0948135D63F07F0313555DF8044B03F05D
:2006C00003B91C46F3E70024F1E700BF5C28002020000020802800201000002008B500F0DE
:2006E0001BF8024B00221A7008BD00BF5D280020034A137803431846137000F031B800BF2E
:200700005D280020034A137823EA00031846137000F026B85D2800200D4B1A6802B17047B4
:2007200010B501220B4C1A6023681920DB6B984723681B20DB6B984723680720DB6B984755
:2007400023680620DB6B9847034B044A1A6010BDE4020020B4010010A0200240C000000A49
:200760000D4A0E490E4B08701A60C20744BF4FF0007243F8102C810703D50A4B4FF0006236
:200780001A60420702D5074B80221A60030702D5044B40221A607047C000000A5E2800201E
:2007A000A0200240902002400B2838B521D00F2834D012284CD0132864D00C2800D038BD3B
:2007C000424C204603F0CCF80028F8D02046042103F0B2F83E4B1D68C5F30035CDB100F0ED
:2007E0008DFAA368C31AE3603A48BDE83840FFF74DBF394C204603F0B3F80028DFD02046E0
:20080000042103F099F8324B1D68C5F3C025002D52D100F073FAE560A06038BD2F4C2046C8
:2008200003F09EF80028CAD02046042103F084F8274B1D68C5F3C035002DEAD000F05EFAA0
:20084000A368C31AE3602648BDE83840FFF71EBF244C204603F084F80028B0D02046042197
:2008600003F06AF81A4B1D68C5F38045002DD0D000F044FAA368C31AE3601B48BDE8384016
:20088000FFF704BF194C204603F06AF8002896D02046042103F050F80D4B1D68C5F3C04591
:2008A000002DB6D000F02AFAA368C31AE3601048BDE83840FFF7EABE00F020FAA368C31A41
:2008C000E3600C48BDE83840FFF7E0BEF8020020C0200240E8DF0000080300201803002067
:2008E000A8DF0000E8020020D8DF000028030020B8DF0000C8DF000028B1012806BF054B10
:20090000D86800207047044B1868C0F3C02080F00100704708030020C020024028B10128E7
:2009200006BF054BD86800207047044B1868C0F3C03080F00100704718030020C020024094
:2009400028B1012806BF054BD86800207047044B1868C0F3804080F001007047E8020020F5
:20096000C020024028B1012806BF054BD86800207047044B1868C0F3C04080F0010070477D
:2009800028030020C020024028B1012806BF054BD86800207047044B1868C0F3003080F09A
:2009A00001007047F8020020C020024008B5034B1B685B689847C0F3804008BDB401001016
:2009C0008138012801D9002070470B20FFF7EEBF8138012801D9002070470F20FFF7E6BF59
:2009E0008138012801D9002070471220FFF7DEBF8138012801D9002070471320FFF7D6BF4E
:200A00008138012801D9002070470C20FFF7CEBF802870B514460AD0812807D1E1B9BDE8D3
:200A20007040184B10461B685B6B184770BD154D1549012393402A680B60936B2046984781
:200A40002B68204600211B68104A9847E0B21049BDE8704000F0B6BE0A4D0B49012393407A
:200A60002A680B60936B204698472B6820461B680021064A98472B682046BDE870401B6B96
:200A8000184700BFB4010010E020024000400720A907000008B50B22FFF7BAFF012008BD9B
:200AA00008B50F22FFF7B4FF012008BD08B51222FFF7AEFF012008BD08B51322FFF7A8FFB0
:200AC000012008BD08B50C22FFF7A2FF012008BD10B50A4C1A202368DB6B9847084A2368E6
:200AE0004FF0806111609B6B17209847236817209B694FF4C041BDE810401847B401001026
:200B0000A020024010B5064C042023685B699847236804205B6B98470128F9D110BD00BF97
:200B2000B801001070B509F0C9FB0646FFF7EAFF124B4FF4A0601B68DB699847104B01211C
:200B4000104A196013689B07FCD50F4D0F4800F007FE2B680D20DB6B0D4C98472B684FF418
:200B600000522260DB6B142098474FF48013236006B170BDBDE8704009F0A4BBB801001095
:200B80002820086028200840B40100103C000020A02002400120704710B5032108200022E7
:200BA00009F082FA044B00221A6009F0DBFA044609F03AFA204610BD1C900C40802838B5D0
:200BC0001CD0812818D10C46194D1A202B68DB6B98472B6817201B6800214FF4C04298475B
:200BE0002B6817209B6B98477CB9124B4FF080621A60114800F09AFA012038BD0C4B1A2095
:200C00001B68DB6B9847012038BD0C4B4FF080621A60094800F034FA094B0921586C09F07A
:200C2000D9F94FF4FA6000F0ADF8012038BD00BFB4010010A02002405000002090200240B2
:200C40004800001010B5064C042023685B699847236804205B6B98470128F9D110BD00BF00
:200C6000B8010010F8B51A4A00200021C2E90001184B04201B685B6B9847012801D0FFF70E
:200C8000E1FF144B00201B68DB699847124B0121124A196013689B07FCD5114A11491368DD
:200CA000096823F4807323F001030F4C13600B6820460E49984740F221200D4D0D490E4B49
:200CC00004273126012227602E6008601A60F8BD70020020B8010010282008602820084028
:200CE0000C000140C801001000000140002100043C000140080001400400244310B4094921
:200D0000094C0B68226808688342FAD1DB01074903EB52620023C1E900235DF8044BD1E965
:200D200000017047082009400C2009407002002010B50B490B4C0B68226808688342FAD116
:200D4000DB01094903EB52620023C1E9002302F023FC00B910BDBDE8104002F0EFBB00BFEC
:200D6000082009400C2009407002002010B509F0A5FA034B1C6808B909F0A4FA204610BD41
:200D80000820094038B51A4B05461B6804205B6B9847012801D0FFF755FF154B154A1B6873
:200DA0000020DB6914689847134B0121134A04F00104196013689807FCD5114B11491A4624
:200DC0000D60196841F4807119601368D905FCD404B138BD064B20461B681B6A9847064BC4
:200DE0000121064A196013689B07FCD538BD00BFB8010010542008402820086028200840A1
:200E00000C0001402C0001402DE9F04109F056FA1D4E1E4B1E4F32680124002580464FF45A
:200E200080314FF480703D601C60186019601368284623219847336820461B682421984710
:200E4000336802201B6825219847124A1249136843F4E02313600D6009F0D4F80F4B104969
:200E6000104A1B6800F50070086014603C601B6914209847B8F1000F01D0BDE8F081BDE8DD
:200E8000F04109F01FBA00BF8401001004200940000024430020094008200940B00100108C
:200EA0001C200940A0022443431E012B10B41BD9042802D05DF8044B704700231A4610F083
:200EC00004001CBF0E4C216013B10E4B0121196012B10D4B01221A600028EBD00B4B01228C
:200EE0001A605DF8044B704710F0010302D0084A0123116010F00202E1D0064C2160DEE713
:200F00002020094080022443A0022443C0022443182009401C200940014B1868704700BFE5
:200F20003803002008B50BF08BFB184B1860FFF7FFFE174B1B686BB9164B1B68E3B9164B60
:200F40001B6833B11549164B00204FF4803208601A6008BD124B4FF480721A6009F052F860
:200F600000F205200F4B20F4FF7020F001001860084B1B68002BE2D00B49094B0020012256
:200F800008601A6002F0C4FCD9E700BF38030020A000244380002443C0002443C0022443A5
:200FA000042009401C20094080022443820702D5034B01221A60C30700D4704709F082B982
:200FC000000C084008B509F079F9074B1A68012A03BF0649022219600022002814BF104675
:200FE00042F0010008BD00BF000C084051E5CC1A03490448044B012208601A60704700BF68
:2010000000000840FFFF0F00000C084038B5FFF7D9FF064C064D0749074A012325600B6012
:201020001360BDE83840FFF7C1BF00BF00000840FFFF0F000C000840040100430349044862
:20104000044B012208601A60704700BF00000840FFFF0F000C00084008B5064802F0FAFC2A
:2010600030B1054B0121054A196013689B06FCD508BD00BF3C0300200002224314100940B1
:2010800070B5054609F01AF90B4C294606460B4802F0E2FCFFF7E0FF236868681B6898470D
:2010A000236868689B6898471128F9D106B170BDBDE8704009F006B9A00100103C030020EF
:2010C00038B5044648B9134802F0C4FC28B1234605C813430028FBD19BB90F490F480B68FC
:2010E0000F4D104C0068002223F4C0530B602A602260C368012098470B4A13689B06FCD4A1
:2011000038BD054A136823F4C05343F40063136038BD00BF3C03002004100940A0010010B8
:2011200080012243000222431410094038B5054609F0C4F804462946054802F0D1FC002023
:20114000FFF7BEFF04B138BDBDE8384009F0BAB83C03002010B50446C0B200F07FF92046FC
:2011600010BD00BF70B506460024451E04E015F8010F00F073F9013430460CF08DFD844297
:20118000F5D30A2000F06AF900F07CF90128FBD0204670BD70B50446B0B10078C0B1A9B10B
:2011A0000025661804E014F8010F38B1B44205D000F054F9631C05F10105F4D100F062F910
:2011C0000128FBD0284670BD0546F7E70D46F5E70546F3E710B40B4B0B4C13F8012FFF2A2E
:2011E0000ED1A342F9D1094A39B11144013801390B78914200F8013FF9D15DF8044B7047A9
:20120000034AF1E7C7FF0100CFFF0100F0120050C8FF010038B50C4D02202B685B6998475B
:201220002B6802205B6B984701280446064BF7D11B684FF40070DB699847044B044A1C6056
:2012400013689B07FCD538BDB801001028200860282008402DE9F04340F2F275DFF8DC808D
:2012600083B0FFF7D7FFD8F800302A4EDB682A4898473368294C5B69152098472368DFF819
:20128000C090274F23F4FE63D9F8002023F0020323603D60D36B032098472249D9F800204B
:2012A0004FF0FF33082008600093D2F840C01A4802210322E047D8F800301748D3F804C011
:2012C00019494FF4E1326023E04740F2011240F2013E1649164B142008601968154841F08B
:2012E0001001196003681449002B0CBF134673460B603D60036853B12368326843F0500372
:2013000023601369152003B0BDE8F043184703B0BDE8F083B001001000100040381000404B
:201320004410004090200240006CDC02341000402C1000404003002030100040D001001019
:20134000B401001008B5064B02201B685B6B9847012803BF034B186800F00100002008BDE1
:20136000B80100106C20084038B50446FFF7EAFF18B1264A13681907FCD4032C03D0244BA5
:201380001B6803B138BDFFF7DDFFF0B9214D4FF400702B681B6A9847032C2CD01E4B0121D8
:2013A0001E4A196013689B07FCD5032000F0F4F9022000F0F1F94FF0FF3000F0EDF9BDE879
:2013C00038404FF0FF3000F0E7B9154B15481B68DB689847144B15201B685B69984740F249
:2013E000F270124A1249136823F4FE6323F0020313600860CAE72B684FF400709B6A984713
:201400002B684FF400701B6B9847C7E71810004040030020B801001028200860282008409F
:20142000D001001000100040B0010010381000404410004010B508F041FF0446054800F01A
:201440008FF9054B00221A6004B110BDBDE8104008F038BF580000204003002010B50446C8
:20146000FFF770FF08B9FFF7F5FE044B2146BDE810401B680248DB69184700BFD0010010A2
:201480000010004008B5FFF75DFF18B1024B1868C0F3C00008BD00BF1810004038B5FFF715
:2014A000B9FE40F2F2710C4B0C4A1B68116013F0500F10D00A4C0B4D05E02B681B69984774
:2014C000094B1B6823B923680848DB06F5D538BDC0B29847F7E738BD401000404410004096
:2014E00018100040D00100104003002000100040034A136823F00403136030BF704700BF36
:2015000010ED00E070B508F0D9FE02F087F918B1BDE8704008F0D6BE814802F09BFA022567
:20152000044648B1636823B19847A84228BF2846C5B22468002CF5D10BF082F8794B044633
:201540001B68002B40F08B8002F026F8002840F09280012D014600F0D680022DD8D100286D
:2015600040F0C3802846611EFFF79EFC6C4802F071FA06250446002800F0B080A368022080
:2015800003B198472369246825EA0305002CF5D1FFF754FD6B0705F0060400F1A280002CA0
:2015A00040F0A78000F0A8F90020FFF789FD5E495E4A0B685E4823F003030B6013680168D7
:2015C00043F00F0313608B6939209847594A5A4900231360184613600B6009F085FA062C65
:2015E00000F08D80554C564D564E2B682368326823F00303236053685348032198474C4BC2
:201600001B689B6B98472B6809F0A8FB4F4A3368002111604C485B680121984723684C4AF4
:20162000012143F00303236011602B6809F0C8FBFFF712FDFFF77CFBFFF700FD384802F035
:2016400009FA044628B1E36803B198472468002CF9D108F037FEBDE8704008F033BE3D4B11
:201660001B681B1A022B34D4A3F28F23002BBFF66BAF01232EE001F097FF0646FFF73EFB08
:20168000361A002E7FF744AFFFF746FC324B00EB46211B1BCB423CD4012085427FF45DAFA2
:2016A0006FF007031B1BCB4230D404F58034631A31EA230128BF21460220FFF7F5FB274A4A
:2016C000136823F00403136030BFBDE8704008F0F9BD00239D4228BF1D4635E7FFF7AEFC08
:2016E00006241B4B00221A6059E72846FFF7DCFB3CE70F4B20461B689B69984752E702209F
:2017000008F082FE6EE704F58031D5E704F10801D2E7022DC4D0012D7FF4FAAEC0E700BF6D
:2017200044030020800224430010094008100940B801001040100940200422432422084026
:201740002C200940D801001000400340800104430C4009401820094071FDFFFF10ED00E061
:201760000146014802F078B9440300200146014802F0B6B94403002010B5054802F066F994
:20178000BDE81040034B03201B6820211B6818474403002084010010421C0ED010B50446F6
:2017A000064B4FF4C0421B6800211B689847044AA3001A430023136010BD7047B401001060
:2017C000001A444238B504460D4608F077FD01230549064AA3400B6042F8245000B138BD0F
:2017E000BDE8384008F06EBDE020024048030020064B002103F1800243F8041F9342FBD115
:20180000034B10201B681B69184700BF44030020B0010010F8B5094B094F1D6800241D607E
:20182000012606FA04F32B42E0B203D057F8243003B198470134202CF3D1F8BDE020024046
:201840004803002000B585B00022412302A802920393FFF715FC042008F0C4FD032810D0EA
:201860000420032108F096FD042008F0BBFD0328FAD10090002106484FF040521C2308F0C4
:201880003FFD02A8FFF752FC05B05DF804FB00BF00A00C4000B583B00022412368468DE8D9
:2018A0000C00FFF7EDFB012008F09CFD012803D00320012108F06EFD6846FFF737FC03B05E
:2018C0005DF804FB00B583B00022412368468DE80C00FFF7D5FB012008F084FD012803D0BB
:2018E000044B986B08F060FB6846FFF71FFC03B05DF804FB4800001010B582B0412368461C
:20190000002401930094FFF7BBFB0320214608F041FD012008F066FD18B1044B986B08F080
:2019200043FB6846FFF702FC02B010BD4800001008B50AF0B3FE30B1044B5B88022B0CBF7D
:201940000120022008BD022008BD00BF4806002070B582B00AF0A2FE40B9144801A90AF081
:20196000A5FE01280AD0002002B070BD0F4C6388022B08BF0120F0D102B070BD0AF060FE6F
:201980000A4C00F1400504E00AF05AFE401B002809DA6088054E0228F6D1A0F10200B0FAB6
:2019A00080F04009E8E77088F7E700BF4806002008B50346B32994BF0A46B4220248194698
:2019C0000CF042F8002008BDDE06002030B589B002A8182140F602020BF0BCF8124A9DF80D
:2019E0001830126803F0F8039588104C6FF3C303012202A801A9ADF81A508DF818300794A8
:201A00008DF816200AF052FE012802D0002009B030BD02A80AF09CFEA0F10100B0FA80F016
:201A2000400909B030BD00BFAC0000208000002008B5FFF7CBFF012801D0002008BDFFF73A
:201A400087FFC0B208BD00BF70B50E4D0E4E2C68002006E02379022B06D024682B68A342F1
:201A60000ED02379032BF5D133780120002BF4D1064801F029FF24682B680120A342F0D1EF
:201A800070BD00BF0C060020602800205C02002030B583B00BF058F804460AF0FFFD08B99E
:201AA00003B030BD0A4801A90AF000FE0128F7D10AF0C6FD00F1400504E00AF0C1FD401BB7
:201AC0000028EDDA638803F44063002BF5D0E7E7010001040B2807D00C2801D001207047E7
:201AE000042A11D002207047082AFBD10029F9D0094B0139A3F1080013F8012D834201F8ED
:201B0000012FF9D1002070470029EBD0034B00201B680B60704700BF780600201406002066
:201B200010B584B00AF0BAFD08B904B010BD42F20343002402A801A902940394ADF80830BD
:201B40000AF0B4FD0028F0D09DF90A30803302D0204604B010BD9DF80C0000F00C00A0F188
:201B60000400B0FA80F04009DFE700BF30B583B00AF094FD48B3164C6388022B25D1FFF775
:201B8000CFFF0028FBD101A912480AF08FFD0AF057FD00F1400507E06388022B08D10AF0A3
:201BA0004FFD401B002803DA0AF078FD0028F3D142F202426388934207D042F20740181A62
:201BC000B0FA80F0400903B030BD012003B030BD48060020010001040B2801D001207047F1
:201BE000082A01D0022070470029FBD0104B083103F1080011F8012D03F8012F8342F9D194
:201C000010B50AF04BFD88B10A4B5B88022B0CD1FFF7ACFF01280CBF00240324FFF798FED6
:201C200001280CBF2046032010BD002010BD00BF6F0600204806002030B585B00AF02EFD6C
:201C400018B1104B5B88022B02D0FF2005B030BD4FF0000242F2034563F301028DF80C20F6
:201C600000249DF80C0000F00303022BEED102A801A902940394ADF808500AF017FD002809
:201C8000EFD1E2E74806002070B504460AF006FDC8B1184B5B88022B20D108F00FFB0546B7
:201CA00094B9154B154C1E68002116F1804022684FF0000341F10001994208BF90420FD353
:201CC00026603DB1012070BD0B4A0C4B12681A60002DF7D108F0F6FA012070BD002070BD2A
:201CE0000AF0AEFC064A07491368086001331360E6E700BF4806002004300440D8060020A6
:201D0000C80300204406002008B50AF07BFF012809D00AF0C3FC30B1074B5B88022B02D16C
:201D2000FFF7FEFE08B1002008BDFFF785FFFF28F9D0C0F3801008BD4806002010B50AF074
:201D400061FF012823D0FFF7EBFE04460028FAD1FFF70CFF0AF0ECFDFFF7CEFD0D4B0E4997
:201D60001A794C80022A08BF1C710C4B1A79022A04BF00221A710A4B1A79022A04BF002205
:201D80001A71084B1A79022A04BF00221A71012010BD00BFCC030020480600205C040020AC
:201DA000EC0400207C050020F8B50AF02BFF012832D0FFF76FFD0AF071FC48BB1F4A2048D9
:201DC0002049214B92F805C090F805E04F795E790125882465F3830C65F3830E65F383074F
:201DE00065F3830682F805C0106080F805E00160C480D480CC804F710B601A60DC805E71E1
:201E0000FFF760FD0AF02CFEA84207D00020F8BD0E4B5B88022BD1D10120F8BD0C4B1878ED
:201E2000003018BF01200AF035FEFFF7CFFD0128ECD1BDE8F840FFF78BBD00BFCC030020DC
:201E40005C040020EC0400207C050020480600206028002070B584B0072800F2A380DFE8D7
:201E600000F01E60252E315B6B044F4C21770AF015FC08B36388022B1ED1FFF777FE012812
:201E80000CBF002403240AF0F9FD012875D0FFF75FFD01280CBF2046032004B070BD0129F4
:201EA00075D000296DD0022004B070BD3E4C61860AF0F4FB0028DDD1002004B070BD3A4CBD
:201EC0002186D4E731F00702EDD1374C3748237EC1F3400561F30003DBB243F00203067882
:201EE00065F38203657EC1F3800103F0870362F3C71362F3C7158E42657623760170B6D1D4
:201F00002B4B228B184603A95A800AF0CFFB00280CBF03200020C0E731F00103C3D1C8B2E6
:201F2000BBE7A1F10B030F2BBDD81F4CC9B2A37B8B42C1D0A1739AE701F115031A2BB2D8C0
:201F40001C4D0C2455F834301A4899424FEAC40224DD14F1FF34F5D20AF0A0FB00289CD0D2
:201F600005EBC404A288102303A802A9ADF80E20ADF80C300AF09AFB9EE70020FFF784FE96
:201F800085E70191FFF7DAFE0199084685E7FFF70BFF012814BF032000207EE7064B0244E6
:201FA0001A60D9E7012078E748060020602800203806002014E00000AC00002081B1F0B55C
:201FC0000C4685B0102800F29E80DFE800F089847F7A6360965A28221D9C9C1915100B00DA
:201FE0000220704705230B60002005B0F0BD6FF014030B600020F8E71A230B600020F4E770
:202000000B230B600020F0E7494B00201B780B60EBE7484B00201B785BB20B60E5E70AF028
:202020003DFB002871D0444B5B88022B08BF00276BD14FF000030222002562F38303039538
:2020400002958DF80C3042F2034609E002A801A902950395ADF808600AF028FB00285AD0C3
:202060009DF80C3003F00C03082BEFD0002F5BD19DF90A3013F1800F23600CBF032000204C
:20208000B3E72D4B002093F91C300B60ADE700200860AAE70023284A0B60137E03F0010396
:2020A0000B60127E520744BF43F002030B60234B1878002899D00B68002043F004030B605F
:2020C00093E71D4B00201B8E0B608EE71A4B00205B8E0B6089E7184B00209B7B0B6084E7BD
:2020E0000AF0DCFA30B1144B5888A0F10200B0FA80F040092060002077E7114B00201B68FD
:202100001B680B6071E701206FE7FFF74DFE012805D107468DE780238DF80A3027B96FF060
:202120007F032360032060E7FFF708FEA0E700BF612800205F280020480600206028002088
:20214000AC000020F0B589B007460AF0A7FA00284ED0344B5B88022B08BF002648D10AF018
:202160006FFA6FF01F052D1A03E00AF069FAC54245D5FFF7D5FC01280446F6D000283ED194
:2021800002A8182142F601420AF0E4FC264D274BFFB28DF817702978069304949DF81430BA
:2021A000003118BF012123F00F0301208DF814300AF0AAFC02A801A90AF078FA28B328780B
:2021C00000E040B3BDF80A3003F44063002BF8D0BDF80A40A4B2B4F5105418BF0124003022
:2021E00018BF01200AF0A4FCC6B9204609B0F0BDFFF7DAFD012806D0012009B0F0BD3EB9B8
:20220000022009B0F0BD0646A9E728780124E6E7FFF794FDF4E7FFF76BF9D0E7FFF78EFDD4
:202220002046EAE74806002060280020DE06002010B50C46B32C014694BF2246B422044833
:202240000BF002FC2046BDE81040FFF77BBF00BFDE06002010B50AF0D5FC012817D00AF09D
:202260001DFAB0B9FFF7A0FD012804460DD1FFF7E3FCFF2805D000F0030010F1FF3418BF2B
:202280000124FFF75BFD204610BDFFF757FD012010BD094B5B88022BE4D1FFF741FC0028EC
:2022A000FBD1FFF7C9FCFF28F1D000F0030010F1FF3018BF012010BD480600202DE9F04310
:2022C0005B4E83B080460F4635680AF0B9F9594C241A03E00AF0B4F9C44208D52B79022B9D
:2022E000F8D0032B06D0002003B0BDE8F0832B79032BF8D135684E4A2B7A032B07D995F817
:2023000008905FFA89F9A9F10804BC4207DD2B68002013602871287203B0BDE8F08305F1A8
:202320000901224640460BF08FFB09F10303EB5C414F09F104023B7009F10509AB5C55F842
:2023400009003E4D03F03F0301902B70DDF804900AF0A4F9002858D0394B5B88022B08BFDD
:202360004FF0000851D10AF099F948B1344B5B88022B05D10020FFF787FCB8F1000F54D194
:20238000304BB9F1404FD3F800800BD90AF058F92D4B1B68C3F17E4303F57203C34248BF26
:2023A00008F1FF384146DFF8ACE06FF4BF72DEF800E012EB09024FF0FF334FF0000043F1CD
:2023C0000003B2EB0E0263EBEE7312EB000843EB0109DFF884E04FEA092143F6095200230C
:2023E00041EA18614FEA0820CEE900890BF022F8164B174A1B78106063B13368002219686C
:20240000204631601A721A716EE7FFF7CDFC4FF00108A8E73978042049B289B209F0A0F926
:202420002978032009F09CF9E7E7FFF787FCA7E740060020FAFEFFFF5F28002061280020C9
:2024400048060020C8030020440600206028002014060020142700207802002010B50AF023
:202460001DF980B1124B5B88022B0CD10020FFF70BFC04469CB9BDE810400E4880210E4ACB
:20248000002300F04BBFFFF78FFC0128F3D10020FFF7FAFB0446FFF751FC002CEBD0BDE88D
:2024A000104004484FF48731034A002300F036BF48060020180600205D2400002DE9F84FA6
:2024C000364F3748FFF74CF90AF0A8FA3846002190220BF093FB0021902232480BF08EFB76
:2024E000002190223048314C0BF088FB002190222F480BF083FB2F4E2F4B002529462046E2
:20250000802242F6010B1F60376075600BF076FB42F202000722022363762276274BB4F86B
:202520001880274FFF2101224FF06F0C4FF0A60E4FF0190A4FF0B9092661A4F800B084F8EB
:202540000EA084F80F90676184F81BC084F81CE0A176627384F83720A3F80280197118801D
:20256000FFF722FC0128044603D02C462046BDE8F88F14480AF0FEFA2046FFF785FB124A77
:202580002B4612484FF4873100F0C8FE2946104801F07AF92046BDE8F88F00BFCC03002054
:2025A0006C0000205C040020EC040020480600207C0500200C0600204006002038060020FA
:2025C000C80600207CE000005D240000180600205C02002008B500F08BF880B208BD00BF8E
:2025E00000F010B938B50C4D04202B685B6998472B6804205B6B984701280446064BF7D19A
:202600001B6840F20140DB699847044B044A1C6013689B07FCD538BDB8010010282008602C
:2026200028200840034B1B68002B14BF01200220704700BF94070020F8B503880446002B1A
:202640002ED0B3F5847F05D1184B1B788B4205D00120F8BD002303800320F8BD144D2B681B
:2026600073B1144B144A1B6812685B680220174698470026301847F100012B6898472E60B4
:202680000E4B40F201401B689B6A98470C4B01210C4A196013689B07FCD50B48FFF766F82A
:2026A0004FF4847323800120F8BD00BF6E02002094070020CC01001004800240B8010010F1
:2026C0002820086028200840B000002008B5064B04201B685B6B9847012803BF034B1868D7
:2026E000C0F34000002008BDB80100103C20084070B5274B1B689BB1264C0023224612F828
:20270000011B29B90133042BF9D10020014670BD214A002502EBC302E55492E8030070BDD5
:20272000FFF7D4FF00282FD01C4A1D4B1268134073B91C4A01211346116018680028FCD11B
:2027400002464FF4807108F079FB174B01221A6007F0B4FD0646114A1368DB07FCD5134BB7
:20276000134A1B6814685B680220984723460022141843F1000516B12046294670BD07F089
:20278000A1FD2046294670BDFFF72CFFCCE700BF9407002098070020800200200880024020
:2027A00001000080F09F0240A8025042CC0100100480024038B50E4D00240E4A2C6013681D
:2027C0000D4923F00103096813604B6931209847204622464FF4807108F030FB0122074B2A
:2027E0002A6019782246BDE83840054801F020B8A80250420C800240B00100106E020020C8
:20280000C400002010B5074C2378802B00D010BD00F08CFF207000210348BDE8104001F07C
:2028200033B800BF6E020020C40000200AB90020704708B508461146FEF7ACFC002008BDFC
:202840000FB400B583B004AB53F8041B04481A46019300F025F803B05DF804EB04B0704705
:20286000D4000020102970B50C46054602D80AE0102C0BD92B686868084910229847103C74
:202880000028F5D070BD08460029FBD022462B6868680249BDE87040184700BF20E1000052
:2028A0002DE9F04F82460F468FB007924FF0000B3B78002B00F0E880252B08BF3E461BD0C8
:2028C0003C4602E0252B04D014466378621C002BF8D1974216460CD0D51B39462A46DAF807
:2028E0000030DAF804009847002840F079826378AB44002B00F0C88073780136002B00F036
:20290000C38019460025A1F12003102B1BD8DFE803F0171A1A141A1A1A1A1A1A1A111A0E05
:202920001A1A090045F0100516F8011FEBE745F00105F9E745F00605F6E745F00805F3E7BC
:2029400045F00205F0E7A1F13102082A0B46374600F2DC80A1F13002092A4FF000040AD835
:2029600004EB840403EB440417F8013F303CA3F13002092AF4D92E2B00F0D1804FF0FF361B
:202980006C2B00F03D81682B00F04281782B00F28180DFE813F079007F007F007F007F00D7
:2029A0007F007F007F007F007F007F007F007F007F007F007F007F007F007F007F007F0027
:2029C0007F007F007F007F007F007F007F007F007F007F007F007F007F007F007F007F0007
:2029E000BE027F007F007F007F007F007F007F007F007F007F007F007F007F007F007F00A6
:202A00007F007F007F007F007F007F007F007F007F007F007F007F00BB027F007F007F0088
:202A2000B802B502B2027F007F007F007F007F007F007F007F007F007F007F007F007F00FE
:202A40007F007F007F00AF027F007F007F007F007F007F007F007F00AC027F00A902A602D0
:202A6000A302A0029D027F00A6027F007F007F007F009A0297027D007F007F0091027F008B
:202A80008E027F007F00940258460FB0BDE8F08F45F4407505F4E063B3F5806F07F10107D0
:202AA00000F0CE804FD9B3F5C06F00F0A581B3F5E06F00F09A81B3F5A06F7FF4F9AE079B4E
:202AC000012C1A6803F1040307938CBF04F1FF340024EB078DF8202000F1D0815046214625
:202AE000FFF7C0FE002840F07B81DAF80030DAF8040008A901229847002840F071810BF1FD
:202B0000010C0CEB040505EB040BD1E62A2900F08C800B462E2B4FF000047FF42FAF7B7872
:202B2000791CA3F13002092A7AD80F46002606EB860603EB460617F8013F303EA3F1300200
:202B4000092AF4D91CE7B3F5807F00F0B080B3F5407F7FF4ADAE079BC34A1968C34815F432
:202B6000804F03F1040308BF9046079318BF80460A460023002900F094810DF1330948464E
:202B8000110941EA03714FEA131E02F00F0673460A4618F8061000F8011D52EA0301EFD1C6
:202BA000B9EB0006034600F07E810336B4424FF030024FF078014FF0230300F8022C8CBF05
:202BC000A41B0024EA0700F8011C00F8033CA0F1030800F1A18150462146FFF743FE0028CA
:202BE00040F0FE804146DAF80030DAF8040032469847002840F0F4805E4406EB040B57E6C6
:202C00007B786C2B00F00481013745F06005BDE67B78682B00F09381013745F04005B5E669
:202C20002A2B00F091810F46A8E6079B771C1C680433002C0793B8BF45F0010573789AE687
:202C4000079BD3F8009004330793B9F1000F00F08F8299F80030002B00F0B2824B4613F840
:202C6000012F002AFBD1C9EB0308002E02DBB04528BFB04644458CBFC8EB04040024E907EF
:202C800000F1E08050462146FFF7ECFD002840F0A7804946DAF80030DAF8040042469847BA
:202CA000002840F09D80D84408EB040B00E6002EABBF25F0100501230196019315F400532E
:202CC000049305F0E00300F0A880402B00F07F8200F24181002B00F02D82202B40F05A823C
:202CE000079B1A1D079293F90020D317002A73F10001C0F22A82CDE902230023059305F450
:202D0000C053B3F5805F00F09281B3F5C05F00F0BF81B3F5006F00F067810DF136064FF0B7
:202D20000008019B41F20802984541F6080303EA050380F0338101999342C8EB01010191C4
:202D400000F0468141F6080201999342414400F031814FF000094A46049B73B1059B002B7F
:202D600040F0838105F00603022B00F01B824048062B04BF02464FF0010909EB01039C4284
:202D80008CBFE41A002415F00103049306D1E80640F1F681019B2344049C0193B9F1000FC9
:202DA00007D01146DAF80030DAF804004A469847B0B9019B08EB0B05102B40F291819B4636
:202DC00003E0BBF1100F40F28E81DAF80030DAF80400284910229847ABF1100B0028F0D00B
:202DE0004FF0FF300FB0BDE8F08F079B1A680433C2F800B007935BE5DAF80030DAF804000B
:202E00001D49012298470028EAD10BF1010B4FE5BB7845F080050237B8E5402B00F0C681C6
:202E200000F2A980002B00F09881202B40F02181079B049A05921A1D07921A780023CDE914
:202E400002235CE74946DAF80030DAF80400424698470028C4D150462146D844FFF702FD71
:202E600000283FF421AFBBE7ECE00000D8E0000010E1000030E100001CE10000DAF8003000
:202E8000DAF8040008A9012298470028A8D1504621460BF10105FFF7E5FC00283FF433AEF6
:202EA0009EE70DF13303302203F8012C581E04267CE645F41065EDE545F48065EAE545F437
:202EC000C855E7E545F48855E4E545F4E065E1E545F48135DEE545F40075DBE545F4024546
:202EE000D8E545F42455D5E545F4A065D2E545F4C135CFE545F4B245CCE545F4A135C9E533
:202F000045F48445C6E545F44245C3E545F4E135C0E545F4C065BDE54146DAF80030DAF84D
:202F200004003246984700287FF45AAF504621465E44FFF797FC00283FF45FAE50E7BB7898
:202F400045F02005023721E5079ABB78111D07911668023714E5602B00F0EC80802B40F0CC
:202F60001981079B073323F0070303F108020792D3E90023BAE6602B00F0EF80802B78D1CA
:202F8000049B0593079B073323F0070303F108020792D3E90023CDE90223B0E6934200F055
:202FA000EC800022019241F608020199934241447FF4CFAEDDE9022313433FF4CAAE874B0D
:202FC00015F4804F864A4FF0020908BF1A46C3E60B46002908BF01230193019B4FF0000952
:202FE0004A4603EB0801B7E6DDE9028942464B46134300F0E7800DF136031E4606934046DC
:2030000049460A2200230AF015FA30324046494606F8012D00230A220AF00CFA8046894642
:2030200058EA0903EBD1069BC6EB030879E6DDE90223134300F0C6800DF1360306939E469F
:20304000DDE90223D00840EA4370DE0802F007013346024630310EF8011D52EA0301F1D1A8
:20306000069B7646CEEB03085BE64FF001095D4A83E605F4C053002200200021B3F5805F9F
:203080000592CDE90201D2D0B3F5C05F40F08580DDE90201544A554B15F4804F14BF9046BA
:2030A000984602460B46134300F08C800DF1360306931E4602460B46110941EA03714FEA88
:2030C000131E02F00F0073460A4618F8001006F8011D52EA0301EFD1069BC6EB030820E616
:2030E000019B9B464BB15A46DAF80030DAF804003F49984700287FF473AE31464246DAF8EB
:203100000030DAF804004D44984700287FF468AE019B2B441E46049B002B3FF46EAD50466B
:203120002146FFF79FFB00287FF45AAE06EB040BFFF7BEBB079B1A6804330793002A4FEA2E
:20314000E27373F10001BFF6D6AD524263EB4303CDE9022301230593D1E5049A079B059231
:203160001A680021104604330793CDE90201C6E5DFF884904FF0060877E5012301932CE7C2
:20318000504621460292FFF76DFB029A00283FF405AE25E600220023ADE5DDF814800DF14D
:2031A0003606BEE5134A4FF00109E6E5079B049A05921A1D07921A880023CDE902239EE5F5
:2031C000984652E54FF000080DF13606A9E5079B1A1D0792B3F90020D31787E504E1000052
:2031E00000E1000008E10000D8E00000ECE0000030E100000CE1000014E1000010B504467F
:20320000006830B1002100F03FFB54F8040F0028F8D110BDF0B5038883B005465BB14A2BCE
:2032200004D188291BD0012003B0F0BD00230380032003B0F0BD194800F00CFC044630B1EF
:20324000201DA16800F080F92468002CF8D1144B01221A704A2301202B8003B0F0BD0F4842
:20326000019200F0F7FB04460028F3D0019A031D9A4205D02468231D002CEBD09A42F9D1DF
:203280000648214600F02CFC064E6269A369376832600BB1E06998473760DBE79C07002005
:2032A00062280020A807002010B5064B002406481C7000F0CBFB2146BDE81040034800F034
:2032C000E3BA00BF622800209C070020DC00002070B504460D48049D0078A261E36165613F
:2032E00030B9A1600A482146BDE8704000F0B4BB084D094B2E68201D2B6000F025F92E60D4
:203300002146BDE87040024800F0A6BB622800209C070020A8070020DC00002010B5044C09
:2033200082B024680094FFF7D3FF02B010BD00BFA807002070B5094B04461B783BB1084DCF
:20334000084B2E6804302B6000F008F92E602146BDE87040044800F07FBB00BF62280020AB
:20336000A8070020DC0000209C07002070B5094B04461B783BB1084D084B2E6804302B6080
:2033800000F0F6F82E602146BDE87040044800F063BB00BF62280020A8070020DC00002077
:2033A0009C07002010B50A4B04461B783BB9C36003612146BDE81040064800F091BB0430BE
:2033C00000F0FCF82146BDE81040024800F088BB622800209C070020704700BF10B50E4C2E
:2033E0002368B3B1FDF78AFC22685168136892681944091A4AB192E8180023441B1A926809
:20340000994228BF1946002AF5D1044B0844186010BD024A136010BDA0070020A40700209D
:203420002DE9F041038805467BB1592B08D1872912D0822920D059232B800120BDE8F0815B
:20344000002303800320BDE8F081254A0120136059232B80BDE8F081214F3B68002BEAD055
:20346000D9688A4203D024E0D9688A4220D19B68002BF9D13B60DEE7194F4FF000083C68BF
:20348000002CD8D0002604E0A3682646002BD2D01C46204600F064FA0028F5D0E068882116
:2034A000224600F0C5F978B10E4800F00DFAEBE73B6099680029BED0C86882420BBF8968AC
:2034C0000B4699608968F5E7E060A3682EB1B360C4F80880FFF782FFD1E73B60F8E700BFEC
:2034E000A0070020EC00002010B50446104800F0EBF91049E3680A684BB142B194420FD004
:20350000134601E09C420BD09B68002BFAD10A4BA2601B680C60E360BDE81040FFF75EBF2E
:20352000054B1B68E360BDE81040FFF757BF00BFEC000020A0070020A8070020014800F0DA
:20354000C3B900BFEC00002010B5044600F0F4F92046BDE81040FFF7C7BF00BF10B5044693
:2035600000F0F2F92046BDE81040FFF7BDBF00BF10B5044600F0EEF92046BDE81040FFF7AD
:20358000B3BF00BFC068B0FA80F04009704700BF05C81044704700BF024B1868003018BF8E
:2035A00001207047A0070020024B186808B1024B18687047A0070020A407002010B5114BAF
:2035C00004461A68904218D05AB19368834208BF13460AD02BB19A68A24206D01346002B84
:2035E000F9D10023A360E36010BDA2689A60FFF7F5FE0023A360E36010BD82681A60FFF74E
:20360000EDFEEEE7A00700202DE9F843DFF8A480274DD8F800702E68874247D077B33B4602
:2036200001E0002B3BD01B689842FAD133B3837B8946044623B3002383736FB1BC424FF002
:20364000870106D0BB7BDB0703D53846224600F033F83F68002FF1D1A3683BB14C4505D026
:203660002C6004F10C00832100229847D8F80000844208D12368C8F800302E60BDE8F88380
:2036800038468442F6D00028F7D00368A34208D0002BF2D01A68A24204D01346F8E7BDE805
:2036A000F883034622681A602E60E7E73B46BDE7A8070020AC07002070B586687EB1044693
:2036C0000A4802230460A37304F10C000D46B0470238012804D9832D02D00123A37370BD85
:2036E00020462146BDE87040FFF78EBFA807002070B50C4A0C4B146800251D7084B101263A
:2037000001E0246864B1E37B002BFAD0A673E573204682210022FFF7CFFF2468002CF2D1F9
:2037200070BD00BFAC07002065280020024B1878421C1A70704700BF6628002070B40748C1
:203740000749084A0023084D084C8A2603700B6013602E70237070BC704700BF642800207B
:20376000AC070020A807002066280020632800202DE9F041244D2B780BB1FFF7B9FF234E18
:203780003378D3B1DFF890E0214F9EF80020013B02EB420189007C180132A068DBB202F04A
:2037A0001F0233708EF800207F5CD4F8048098B1812F06D0827BD20705D428781844BDE855
:2037C000F0810123837339464246FFF775FF337828781844BDE8F0810E4A146834B9ECE79C
:2037E000A37BD9070AD42468002CF0D02B78002BF6D0FFF77DFFA37BD907F4D520463946C3
:203800004246FFF759FFEEE76528002064280020B0070020AC07002063280020024A034BB5
:2038200010781B78184470476428002065280020F0B40C4D2C78202C11D00B4B0B4E1B78F1
:20384000671C234403F01F0303EB43039B00F418A06062602F70F1540020F0BC7047012044
:20386000F0BC70476428002063280020B007002038B5837B034CDB07256801D5FFF71CFF27
:20388000256038BDA807002070B404460D4D2868A04206D038B1034600E023B11B689C4288
:2038A000FBD170BC7047002CFBD0012600232060A673A3810A4620462C60812170BCFFF755
:2038C000D7BF00BFAC07002038B1837B013B012B03D8024A01231370C37370476528002009
:2038E00008F0A8BE38B5094C049D226822B180E82A002060002038BD024680E82A000846DB
:20390000226008F099FE002038BD00BF3009002010B5084C206858B1002243688168226087
:203920009847236823B1BDE81040186808F084BE10BD00BF3009002010B541600446FDF711
:20394000DDF9206010BD00BF90E80C0013440360704700BF10B50446FDF7D0F9206010BDB8
:2039600010B50446FDF7CAF923686268C3F10103184482422CBF0020012010BDF8B5048822
:203980000546672C0CD0792C1BD01CB1002303800320F8BDFFF7CAFE1E4A1F4B10701C6006
:2039A0001D4C264604E00A2813D023687E2B2BDD1A4800F0C1F8431CF5D167232B80012077
:2039C000F8BD852901D00120F8BD134C00232360E6E7114C124F23680E49002603F1010E42
:2039E0003A4609783046FE54C4F800E0FFF720FF0C4B324618688521FFF71AFF0028E5D16B
:203A000079232B800120F8BD05495A1CC8543260CEE700BF0F3300203C0A0020B4090020FE
:203A2000BC090020A807002008B505480549802200F07AF8BDE8084003480021FFF724BF44
:203A4000B409002034090020FC00002000230360704700BF00687047026842B1914203D1F1
:203A60001BE099420ED01A461368002BF9D100230B6002680AB90EE01A461368002BFBD147
:203A8000116070470B68136000230B6000230B600268002AF1D1016070470B680360F3E7DE
:203AA00010B404684CB1A14217D0224602E0994208D01A461368002BF9D10C6001605DF820
:203AC000044B70470C460B6813600023236004680C6001605DF8044B70470B680360F4E7BD
:203AE000026842B18A4203D10BE0994204D01A461368002BF9D170471968116000221A601A
:203B00007047134612680260F8E700BF03682BB100201B680130002BFBD17047184670473D
:203B200000B10068704700BF0023013A0160027143718371704700BF0346807959791A79FF
:203B4000091A114208D010B4411C1C680A40205C9A715DF8044B70474FF0FF30704700BF62
:203B600008B5064803F0A2FC054B00220120FD21187099705A70DA7008BD00BFFD4500008D
:203B8000BC0B002070B413780D7A83F002039D42044614D00B891BB94B89B3F57F4F2FD0D2
:203BA0001E4A51F8085F13684E68012003F10801A0405E601D601160C0B270BC7047487AFB
:203BC00053789842E6D1887A93789842E2D1C87AD3789842DED1087B13799842DAD1487B82
:203BE00053799842D6D1887B93799842D2D1D379CA7B9A42CED1032303FA04F0C0B2DCE794
:203C00008B89FE2BCCD1054DC9892A68022322F8021B03FA04F02A60C0B2CEE7480A002024
:203C200010B5114C0220A17907F09AFDA379112B0FD0062B0DD03A2B05BF94F8281094F8DA
:203C40002930002143EA01210120BDE8104007F087BD238D618D01209942A8BF1946BDE845
:203C6000104007F07DBD00BF9C28002010B5084C2378012B01D0002010BD01460822A01C55
:203C800009F0B0FE00280CBF2046002010BD00BFBC0B002008B50146102007F06FFD044BAB
:203CA00004489B6800219847BDE80840FDF7C6B958E20000B93C000010B50C461146204652
:203CC00002F0A4FD044B1B6813B19B6820469847024B1C6010BD00BF20110020CC0B0020D6
:203CE0002DE9F041154D07462A4600239078713230B101330C2BF9D14FF0FF30BDE8F081F6
:203D0000C3EBC30403EB04142E19717007F082FCDFF830800A4A98F800301168C01A2F5519
:203D2000B070CC1807F076FC98F800202146821AF01C09F089FEB078BDE8F081D00B00209E
:203D4000C80B0020682800202DE9F04F074683B092BB604E894636F8063C15469346FF245A
:203D60004FF0FF38DFF878A1002B37D1B8F1FF3F4DD0012D06F1B8062BD1B8F1FF3F23D0ED
:203D8000B82000FB08F5DFF850810F2008EB0506A6F81290378207F0FDFC0146304607F0E1
:203DA00069F805F1180040444021FFF7C5FD234658B203B0BDE8F08F474D00262C46238AD4
:203DC000BB422CD0B83436B3FF2358B203B0BDE8F08F36F8063C0125002BC7D03046FFF74E
:203DE000BFFD68B13D4B26F806BCE9B29A7822B11A788A4208BF83F802B071335345F5D1B2
:203E0000B8F1FF3FB5D136F8063C002BB1D1ECB24FFA84F8ADE7238A0126BB42D2D1638AC0
:203E2000002BCFD00F20019207F0B4FC0146204607F026F8019A0028C4D0F4B211462046D3
:203E4000FFF74EFF0028019A0CDB0028BCDDB82303FB06562346B28A1044B08258B203B097
:203E6000BDE8F08F4FF0000BDA461A4FDFF870904FF0B80837F8063CEBB156451BD0384664
:203E80000192FFF76DFD019AA8B100218E468C465FFA8AF008FB00535982104B997831B122
:203EA0001978814204BF83F802C00EF1010E71334B45F3D1F344B837BAF1000F07D0BBF145
:203EC000000F81D011462046FFF70AFFBDE74FF0010ACFE7640A00204C0A0020D00B002023
:203EE0001C1100202DE9F04715090F2D07469A4602F00F043FD00F2C34D0A146A8466619FA
:203F00005DBB0F2E03DD5CB9E5B9BDE8F08707EB0800C6F11002002109F070FE002CF3D063
:203F2000DFF87480C9F11000D8F8006038443146224609F089FD022C26D03444C8F8004046
:203F4000BDE8F08738465146BDE8F04702F04EBB454620264FF010094C462A46384609F0B7
:203F600073FDCEE7A84605F11006002DF2D14FF010094C46D4E70F2C4FF01008E8D04246BB
:203F80004546A146A618E9E70A2DD6D8FF22FE23FA723B73D1E700BF480A00202DE9F04FA2
:203FA0000F2089B0DFF8F482B24D07F0F3FB002706F0FCFF88F800702F7007F017FBAE4EBC
:203FC0003060042007F0D4FB3368DFF8D4E21C785A7804F0F80100B2C029CEF8000042EA5F
:203FE000042274D0E02963D1297893F8049093F802E0D878C2F30A044B1D4A46214640EA51
:204000000E202B70FFF7A0FEB0F1FF3F83465BD09A4AB82303FB0023B3F814A00123A24526
:20402000009734BF4FF0000A4FF0010A019307F0F1FA2B788F4D834246D807F0EBFA2B780C
:2040400098F80080C51A08EBC9098D4AA944B9F57A7F156038D837B1316807EB08001944E4
:204060002A4609F0F1FC002C78D0009B53B183494FFA8BF3B82000FB031305EB080292B21D
:204080009A821A84BAF1000F40F00E81019BDBB97C4B45441D807C4C236823B1FFF7C0FDF6
:2040A00023685B68984703F027FA09B0BDE8F08FBB4600973C46754F2A78995C01F0E0009C
:2040C000602854D041291DD009B0BDE8F08F297893F802E0D878C2F30A040B1D3A462146D0
:2040E00040EA0E202B70FFF72FFEB0F1FF3F8346EAD0624FB82303FB007701223368223730
:204100000092D9E73946501CC0B2034403F12000D3F800A0D3F80490D3F808C0D3F80CE081
:2041200010338342C1F800A0C1F80490C1F808C0C1F80CE001F11001EAD118685B68086042
:204140004B6098F800302932283388F80030009B4FF0000A2A70D146019368E7019B002B4F
:2041600096D0BAF1000FAFD0464B1C8093E7981890F801900232DFF82CA14FFA89FC134433
:20418000BCF1000FCAF80030BCBF0133CAF80030CA064AD501F0080303F0FF0E002B40F08A
:2041A000B081DAF800301A461B78C3F3830343F060033B7012F8010BA7F802E0830803F047
:2041C000300343EA8013CAF800207B7001F0040303F0FF02019233B9DAF8003013F8012B7B
:2041E000BA71CAF8003011F0030100F09780284B5B5CFB7119F0400FC9F3011300F0628105
:20420000BCF1000FC0F299810022002B00F08E8020490878012800F0B6811F4A00239A4626
:2042200099461360009B019301E70B0700F16F81DAF800301A4633F8010F9B78A7F80100D2
:20424000FB70787812F804EB00F00F00019202464FEA9E0303F0300040EA8E10104303F025
:204260000F03019A43F06003CAF800203B707870ACE700BF68280020C80B00204C0A00201B
:204280001C11002088280020201100209C28002070E10000BC0B0020400A0020672800207B
:2042A000440A0020480A00204FFA8BF7B82101FB07F1DFF834A3C2480AEB010319461A8CD0
:2042C0009C822231BF4E09F0BFFBBD4B06F24C5916F8012C22B116F8031C8F4200F03B8150
:2042E00071364E45F4D100221046B823FFB203FB07AAB54B5FFA8BFCAAF8122003F24C51C6
:204300009A781AB11A78624508BF987071338B42F6D1019B002B3FF4BBAE25E7DAF800300F
:2043200013F8012BFA71CAF8003063E707F1080204920593A54A0F20D25CCDF80CC00292FE
:2043400007F028FA05990346029A0498FFF7CAFDDDF80CC009F0080303F0FF0209F0030EC5
:20436000002B36D019F0040F11D1994A0EF1FF331288012BADF81C2040F21881954B07F1B0
:20438000180013F80E2007A90023FFF7ABFD98F8002002F1280388F80030019B002B3BD10A
:2043A000DAF800303268DFF844929B1A2B70002C00F09A80A4F128031A127B713A71BB7977
:2043C000112B00F0C080009B4FF0000AD14601932DE619F0040F00F0C880BCF1000FC0F20D
:2043E000DE807D490B78012B7FF417AF4B7893427FF413AF794A754B102013F80E90116017
:20440000029107F0C7F9029903464A46023107F11800FFF767FDBAE7DAF80030197801F01C
:20442000F801F029BED11121B971187800F0F301F03900F00400C0B20329C4D8DFE801F0FC
:20444000382F2002597802330909A1F5756189B2090241F0F001398513F8011C01F00F0100
:20446000A1F5756189B2090241F0F0017985CAF80030002800F0BC80303288F8002091E7AA
:2044800059780433A1F5805189B2090241F0F001398533F8021CCAF800307985E9E7B3F8D3
:2044A00001100433398513F8011CA1F58051D9E7B3F801100533398533F8021CCAF80030BA
:2044C0007985D6E7464A0F20D25CCDF80CC0029207F060F9029A0346424907F10800FFF759
:2044E00001FDDDF80CC035E707F094F899F8002098F80030801A0344283B1A127B713A7106
:204500005DE7002360223A707B707B805EE6DAF80020602310463B7010F8013B03324FEAB6
:20452000930E0EF0300E03F00F034EEA03037B700388CAF800207B8048E62A7831680A4451
:204540009278120961E6BB884FF0000ABB85009BD14601936BE516F8020C314603EBC0004C
:20456000009309F071FA009BBAE61D4B102013F80E9007F00FF94A4603461A4907F118007D
:20458000FFF7B0FC03E7487890427FF446AE134A881C116007F1080205900492CAE63268AD
:2045A0002B7813449A7802F00F021AE7DAF8003013F8012B8DF81D20CAF80030DEE600BF7B
:2045C0009C280020D30B0020D00B00208CE100006CE1000088E10000BC0B0020400A00208A
:2045E00074E1000078E100004C0A00206828002033F8021BF985CAF800303DE72DE9F04FB6
:20460000B14EDFF8F4A2002387B033708AF80030054607F031F806F0E9FFAC4BAC4C1B68C4
:2046200020600BB1FFF7FCFA04A80190002D00F0A682294606F01EFCA64B1B883E2B36D945
:204640009AF80070D4F8008000230237A24D08F80730A24808F102032B60FFF707FB0028F7
:2046600000F00F8108F103032B604FF08009DFF874B29BF801209BF80010130943EA0113B7
:20468000DBB2980840EA8313DBB210075FFA83FE5FD1BBF8020000285BD1080740F0F980BE
:2046A00012F0F00F40F0F5807823029361E0DFF834B29AF800C0DE4623680CF10105EDB283
:2046C00041221D441A700BF1200877460FCF474528606960AA60EB600EF1100E05F1100573
:2046E000F3D1BEE803002860696033780CF1290C28338AF800C033700199102007F03EF8E8
:20470000774B744D1B689847724B0028B3F8009036789AF80080ACBFC0F17D076827C6EBF4
:204720000902C8EB0703B8BF15209A4240F3B880C0F178031E46029307F04AF899FBF6F9DD
:2047400009F101098145C0F2D980002007B0BDE8F08F090703D112F0F00F00F084802A681E
:20476000DBF800001346106003F804EB2B60602302939BF80630112B00F005822A6802F808
:20478000013B9BF807302A60402B00F00582FF2B00F02282012B61D02A6802F8013B2A603A
:2047A000BBF808304F4A3BB953892BB993891BB9D389002B00F044824B48FFF757FA4B4B24
:2047C0001860002800F07781427818F80730042043EA021308F807304349454AFFF7D2F9D7
:2047E00060F03F005FFA80F99BF818303D49FF2B00F08F8101F118000391FFF737FA3B4A83
:2048000003991060002800F0CC8118F8072043781831134308F807300020019AFFF7B2F903
:2048200049F004095FFA89F949EA00002F685FFA80FE9BF806302822112B3270294900F063
:20484000108123689AF800209DF80800FF1A991898548AF8007081F801E04DE7029B43F0E7
:20486000010302939CE7296823F03F031343214A0B701288CB1C2B606823A1F80120029314
:2048800077E71948FFF7F2F900287FF4EBAE8146EDE62B68702203F801EB02922B6068E730
:2048A00020680BEB0601404409F0CEF828884044801B80B206F094FE0198FFF7EBF9012013
:2048C00007B0BDE8F08F00BF6728002020110020C80B002088280020480A0020B42800200D
:2048E00018E200009C280020A4280020400A0020942800209E28002068280020C24BD4F839
:20490000008093F80090C14E41464A46002308F10400336009F00EF92B88DFF818E36FEA45
:2049200083436FEA9343BA4AC3F3072309F104095FFA89F988F80030BEF8003028881178ED
:20494000C9EB070703F1010C27F007071A0A88F80330B04EAC4B88F8010088F802205944E3
:204960003A4608EB090083F80090AEF800C0376009F06AF807EB090080B206F031FE06F010
:204980002DFFA54F804600283FF4DFAE0198FFF781F9404606F070FF404606F057FF9B4B9D
:2049A0001B68012B3FF4D1AE043B012B7FF6CDAE2B883A686FEAC3436FEAD3439449C3F385
:2049C000072391F8008013703368029943442D881FFA83F88C4B21F00700052155703060B1
:2049E0001970374632E0D6F8009020684A450346B8BF91469AF80050B8BF3A6083F804E041
:204A00004A46284409F020F809EB050080B206F0E7FD06F0E3FE054600283FF496AE01982A
:204A2000FFF738F9284606F027FF284606F00EFF764A336812689844012AA2F104031FFAC5
:204A400088F83FF482AE012B7FF67FAE734B0BEB08011B884FEAD80E9845C8EB0302C2D3FC
:204A60002DE74FF2B0020B8D5BBA9BB223F00F0080B290424A8D52BA92B200F0B28002F4D0
:204A80007F42B2F5704F00F0308103F47F43B3F5704F00F0FA80624BF0223A7018687B1D43
:204AA000C7F801001F465F4B30221B88327027F8023B2F60C5E648F2FE03BBF808205A4941
:204AC0009A420FD14B8B6BB98B8B5BB9CB8B4BB908310420554AFFF755F840EA09005FFAD1
:204AE00080F981E6D5F800C0DFF84CE10CF110032B60BEE80F00CCF80410CCF80000CCF895
:204B00000820CCF80C309BF818304749FF2B7FF471AE91F819C049F0080EBCF1020F5FFA7E
:204B20008EFE4B8B00F0BC80002B43D18B8B002B40D1BBF81E303C48002B3BD1038C33B91F
:204B4000438C23B990F82430002B00F0DA80BBF82020354B72BB93F822205ABB2F6849F007
:204B6000090E3A4602F801CB53F8231F063747F8051C1B795FFA8EFE13712F6059E62C496E
:204B800006F078F958E5029B43F0040302939BF80730402B7FF4FBAD029B43F0020302934B
:204BA000FEE548F2FE030A8B9A4202D14B8B002B5BD0CE46D5F80080DFF880C008F11007DF
:204BC000BCE80F002F60C8F80000C8F80410C8F80820C8F80C302CE6029B43F0030302939E
:204BE000DEE522F00F0C84457FF449AFF3233B704B8D0A8D1B0A120A03EB021303F5AA6318
:204C00007B70BB1C4EE700BF68280020CC0B0020672800201C110020C80B00208828002078
:204C2000C4280020CA2800209C28002094280020ECE100004E280020A4280020B42800204B
:204C4000138A002B7FF4B8AD538A002B7FF4B4AD938A002B7FF4B0ADD38A002B7FF4ACAD6C
:204C600049F040095FFA89F9BEE58B8B002BA0D1CB8B002B9DD11831019AFEF783FF40EA0E
:204C800009005FFA80FE2F68D3E5F2233B70BBF82830244A1B0A7B7012883B1D7A8001E7C8
:204CA000002B87D18B8B002B84D1CB8B002B7FF440AF0B8C002B7FF43CAF4B8C002B7FF463
:204CC00038AF8B8C002B7FF434AF91F82630002B7FF42FAF2F6891F8273049F00B0E07F832
:204CE000013B5FFA8EFE2F60A3E5F1220E4B3A701A883B1DA7F80120BBF82A20120AFA7029
:204D0000D0E62A6849F00A0E134603F801CB30F8251F171D80785FFA8EFEA2F801102F6023
:204D2000987086E5C6280020C4280020013A0A44914230B414D20C4625786378023403EBD2
:204D400005239BB2184480B2834284BF013080B2A242F1D8CB43134423F00103023319442A
:204D6000914201D030BC70470B7830BC1B02184480B2834284BF013080B2704730B5134B6D
:204D8000134D1C782B796A79C4EB0323134483B09BB2ADF80630BDF8063005F108011844CB
:204DA000202280B2FFF7C2FFBDF8062004F12801294492B2FFF7BAFF18B94FF6FF7003B037
:204DC00030BD40BA80B203B030BD00BF692800209C280020022318462DE9F0412C4D2D4E08
:204DE0002A782D4F2832B1184978C90001F1070E704549DC8118745CDFF89880012C31440D
:204E00000AD01DD3632C0DD13B70234C03F046FFD0B90120BDE8F0814C7802340319DBB2A6
:204E20001846E5E704F0C004802C1AD0C02C25D0402C1FD04B7802330344DBB21846D7E7D6
:204E4000431CDBB21846D3E72B78227828331344984498F801300020134402332370BDE8DE
:204E6000F0813B7002440221042002F021F80220BDE8F0813B700120BDE8F08198F81810AC
:204E80003B70FF29EED1C4E73B700020BDE8F081692800209C2800206B28002070B4C2784E
:204EA000134C0A44D2B2E27083780E0A3344DBB2A37045789E4265700078207003D90135B9
:204EC000EDB265708DB1C9B28A420CDA0133DBB2A370074A3BB953780133DBB2537013B9BF
:204EE00013780133137070BC704701302070EAE79028002010B5084C014620681430FFF701
:204F0000CDFF064A2368507814789178D2781C7558759975DA7510BD942C00209028002003
:204F20003A20FFF72BBF00BF08B501F07DFB02F0A9F802F009FA0F4B002103F1280223F816
:204F4000021F9342FBD10C4B002103F5F07283F8251030339342FAD1084A094B4FF4806140
:204F6000118003F5A07100221A8220338B42FBD108BD00BF7E2E0020982C00205028002021
:204F8000AC2E00202DE9F041134E347814B3134F04F127033D88AB4204DB00233B80337069
:204FA000BDE8F081DFF83880A5F12802121B04F128012C1B4144A4B208F1280008F0BAFD4F
:204FC000A4F12803191200223C8088F8053088F804103270BDE8F081692800208828002086
:204FE0009C280020F0B50746DFF888C01E4EBCF800500135ADB2B5F5FA4F15D26CBAA4B261
:205000001A4A96461346188A2033A042F1D0B342F9D1ACF800500023108A203240B1013378
:205020000A2BF9D10020F0BD4FF480551024E7E75E010EEB06052C8269820C4B67B12C46AD
:2050400038687968BA68FB680FC4094BB6441B7928468EF81430F0BD05F108029F516F60F1
:2050600042F8047B1760F0E7EC2F0020AC2E0020F42F002050280020074A002332F8021F5A
:20508000814203D00133142BF8D17047034A002122F81310704700BF7E2E0020802E0020CC
:2050A0002DE9F04FC44F042887B03D6829D0C34ADFF828B3DFF828C30328CBF80020CCF834
:2050C00000202CD0022800F09880052800F0598112F83C3CA2F13C0403F0F003602B00F0D5
:2050E000E280DFF80093B64EB64BDFF8FCA2002232801A708AF8002089F8002007B0BDE86D
:20510000F08FDFF8E092AE4EDFF8E082B8F80030002B40F06D81AB4BDFF8CCA2E7E795F8D3
:20512000251001F00F01032900F0F1800229D8D1A2F13C04DFF8AC92A14E04F11808402389
:205140004FF0020E04270020602284F8351084F83CE084F83D7084F83E0084F83F30338059
:2051600084F834202B7D984F84F830306B7D84F83130AB7D84F83230EB7D84F833302B7E39
:2051800084F82C306B7E84F82D30AB7E84F82E30EB7E84F82F302B8A23856B8A638595E877
:2051A0000F0088E80F0007F1080007F1180101F0A3F995F8253003F0100303F0FF02002BBC
:2051C00040F05581402387F8362087F8373033887E4A283B1579062100221E12084663719C
:2051E0002671E571A17184F83B2084F83A202287FFF7C4FDC04320872AE17548704EC27839
:20520000704B0132DFF8E4810021D2B2C27031801970A8F8001062B982780132D2B28270E5
:205220003AB942780132D2B2427012B902780132027095F8251001F0FD02052A00F093808A
:20524000002900F09980AA8B002A00F0208395F82620501E85F82600002A40F08D8095F852
:205260002720082A00F05E83481E012840F25783042A9CBF0320904001F00F0194BFC0B207
:20528000302001324C1E85F8272085F82600072C72D8DFE814F00F010001160106017100D2
:2052A0000601710006012379454E61791B0230885D18854200F3E180207A28310B44FF2898
:2052C000338000F0DA80434D3E4BDFF81CA1A0790021363A2A6019708AF80010002840F07D
:2052E0001B8101220193CDF800C08AF80020FFF771FD0128DDF800C0019B00F06E81C0F0E7
:205300000181022840F00881DFF8D890A5E0AB8B002B7FF4E6AEDFF8CC900823CDF800C019
:2053200089F80030264E02F03BFADFF8C080DDF800C099F8002002F0200303F0FF01002B91
:2053400000F0B682204C0023142285F82530A8F8003084F8352004F118083C233380502353
:2053600084F83430FEE695F826200132D2B2782A85F8262000F08780DFF86890DFF868A0D5
:20538000B5E6154B1B681B8A002B3FF4AAAEDFF85C800B4EDFF84C9000230C3A0821CBF820
:2053A0000020CCF80020A8F800303B60338089F8001002F0F5F9A9E6942C0020D8280020CB
:2053C00088280020692800209C280020F42F002024110020882C00208C2C0020902C002048
:2053E0008C280020842C00206A280020A82E0020AC4AAD4C126803F1080149BA002092F84E
:2054000014E0A185E085118A303321859BB2508AA3F128010D12112784F807E02571608550
:2054200033806171A77104F118050FCA85E80F00294604F1080001F05FF89C4B04F13C029A
:2054400038461A60FFF79AFCC04380B258B1E08500236022227063706380002389F8003064
:2054600007B0BDE8F08F4FF6FF73E385F0E7002387F8373087F83630A9E6DFF838928C4B66
:20548000DFF834A233E6002285F82520DFF82492DFF824A22BE6844CDFF8189204F11808C1
:2054A0004DE6814CDFF80C9204F11808112384F8353052E77C4CDFF8FC9104F118081221A0
:2054C0003DE6DFF8F0910423CDF800C089F8003002F066F9B8F80030DDF800C0DCF800203A
:2054E000CBF80020002B00F0F881AB8B002B00F0F4816D4C18223C33338084F8352004EB9A
:2055000002082CE71A7802F1280121444878083202EBC00229601A70DFF8A081019340468D
:20552000CDF800C000F0C8FEDDF800C0019B002800F02A822A68DFF8809110783C2800F2E3
:205540009E81DFE810F090019C019C019C019C019C0112019C019C019C019C019C019C0102
:205560009C019C019C019C01BD009C019C019C019C019C019C019C019C019C019C019C013B
:205580009C019C019C019C019C019C019C019C019C019C019C019C019C019C018D004A009E
:2055A0009C019C019C019C019C019C019C019C019C019C019C019C019C016A004A004D00F1
:2055C0000193CDF800C0FFF7D9FB4FF6FF729042DDF800C0019B00F08080DFF8D89086E595
:2055E0009AF80000810740F1AE81410600F1478140F0400089F800000193CDF800C0FFF731
:20560000E9FB0128DDF800C0019BE6D0C0F0A08102283FF479AE2A688FE73A200093FFF756
:20562000ADFB4FF6FF729042009BD6D11A7800932832A05C01F04CFF009B1D4D1A78283250
:20564000A1184978A05C01F00FFC0128009B00F0C1823288DFF85C90002A3FF448ADFCE630
:205660009AF8000000F0040E0EF0FF010091BEF1000F40F0048140F00402114693F800E09C
:2056800089F800100EF128022244D078002840F0A58250780EF1080E05490EEBC0000870C7
:2056A0002A604AE78C2C00209C280020902C002069280020842C00206A280020B428002068
:2056C0008DE80810FFF75EFC9DE80810E28D1120A071A54D002A7FF473AFB5F82A80B8F1EE
:2056E000000F3FF47AAFDFF89492A04B9F4DC9F80030248D05F5A07A05E020355545C9F820
:20570000005000F0A0812B8A002BF6D09845F4D16B8A974810220BB1A342EED12B682BB903
:205720006B681BB9AB680BB9EB6843B12946CDF800C008F057F9DDF800C00028DDD1338842
:205740008C49DFF83C92DFF830820022303B02203380CBF80010CCF8001089F80000A8F81C
:2057600000203A6002F01CF8D0E48DE80810FFF709FC06221046A271FFF700FB9DE808100E
:205780004FF6FF72904278497FF427AF4A8D0092002A3FF422AF0A8D0192002A3FF41DAF8D
:2057A000DFF8E091CDF810A009F5F075A24603934C4603E03034AC4200F04B8194F82530E7
:2057C0000293002BF6D0228A009B9A42F2D1628A019B9A42EED1664821461022CDF814C05A
:2057E00008F000F9DDF814C00028E3D122460094544694F835E0DFF888911EF0040F3A6051
:205800001546039BDDF810A089F80000564A40F06A8392F8341032880909283AA2EB8101C1
:20582000029A89B202F00F02022A318000F06C83012A00F0638319B91EF0030F00F06E82FF
:205840000098A18D808A814200F061821EF0020F05D0012A3FF433AE022A00F0818210235D
:2058600084F8353079E59AF800000193C307CDF800C004D440F0010089F80000BFE6121B18
:205880000420012101F014FBDFF8F490E5E501F00F0103297FF470ADDFF8E4900823CDF8A5
:2058A00000C089F8003001F07BFFDDF800C040E502F0100303F0FF00EBB12B4C0120042201
:2058C000112385F82710A8F80010A88385F8252004F1180884F835303FE599F800309807C9
:2058E0007FF519AC204C10223C2384F8352004F11808338033E5B8F800301F495BB1D40792
:2059000040F19A80A883EA8B934288BFA8F80020B8F80030AB83002285F82720DEE5052ADA
:205920007FF4A6AC0023DFF8589085F825300E4C802389F8003001F033FF142384F8353005
:2059400004F1180809E540F0020089F8000053E6187800F12802224492F801E0083000EBB9
:20596000CE002A601870E8E59C280020AC2E0020A4280020CC280020A82E00208C2C0020CE
:20598000842C0020982C002040460193CDF800C000F048FDDDF800C0019B00287FF4CAAD3C
:2059A000217EA8F11808FF2900F0D78048F2FE00B8F81820824200F0D080B8F80820824260
:2059C00000F0D180AAB9B8F80A2092B9B8F80C207AB9B8F80E2062B9B8F810204AB9618A28
:2059E00039B9B8F8141021B9B8F81620002A3FF4F4AD218BA44A81B9518B71B9918B61B913
:205A0000D18B51B9118C41B9518C31B9918C21B9D28CB2F5807F3FF4E0AD3388B3F5A06F95
:205A200000F29982E379984A012B40F28B82013BD371DFF86C9210E5AA8B002A3FF463AFC2
:205A400013460A8067E701200421002201F030FA5AE4544694F83520039B02F03F02022ADC
:205A6000DDF810A053D0DFF8389294F83510864A48073FF53CAB92F82F0092F833C092F812
:205A800032A092F82E1092F82D3092F831E092F82C5092F830700130C0B24FF0140B82F83F
:205AA0002FC082F82EA04FF03C0C4FF0500A82F8330082F8321082F8313082F82DE082F84A
:205AC000305082F82C7082F835B0A6F800C082F834A060B90131C9B282F8321039B901337D
:205AE000DBB282F8313013B96B1C82F83030228D638D664D6285238595E80F0088E80F0025
:205B0000284605F1100100F0F7FCFFF760BB6049002201E0142AA6D031F81200009D0132B1
:205B2000A842F7D1002529465A4A05E001310A2902F1300200F0D38092F82500002856D0CC
:205B40000728F3D1002D00F0CD8092F826E095F82600864588BF1546E8E748F2FE02208986
:205B600090427FF43AAD2089474A78B9508968B9908958B9D08948B9108A38B9508A28B9CA
:205B8000908A18B9D28A002A3FF427AD208B3E4A80B9508B70B9908B60B9D08B50B9108CE9
:205BA00040B9508C30B9908C20B9D28CB2F5807F3FF413ADFF293FF410AD3748009300F021
:205BC0005DFB0246002800F08280DFF8D490009BFFF78DBA002232802A703AE500990EF1D3
:205BE0002A02042001F064F9DFF8B49035E4302505FB01953D60BDF80070284A2F82BDF84E
:205C0000047092F800B0507891786F82D27894F82F701E4B94F82EC094F82C9094F82DA01B
:205C20004FF0010E009785F818B003276876A976EA764FF0000B0FCB85E80F00042385F86F
:205C400025E0A5F81CE085F816C085F8149085F815A085F8267085F8247085F822B085F810
:205C600023309DF800307046EB7585F827B0FFF741F994F8342002F0F003502B23D912091B
:205C8000053A5B46920015E09C280020A4280020802E0020982C0020B428002024110020CA
:205CA000842C002002281FD097F83D1059B10B449A4208DDE11891F83C000F4618B1012800
:205CC000F0D10133F4E7DFF81C93FFF7F8BB0120022101F0EDF8DFF80C93FFF7BEBB002D99
:205CE00088D17AE4154621E791F83D000428DBD191F83E2091F83F30DFF8E89243EA02236A
:205D0000402B28BF4023EB832B84FFF7D8BBB349C88D0099C98A88427FF498AD1EF0100F3C
:205D200002D0009A918BF9B9009A92F825E00EF00F02013A072A3FF6DAA901A151F822F0D0
:205D400077600000155F0000895F0000A75E0000735E0000575E00005F580000335E00003D
:205D60004EF00201FFF7EBB902F118000393CDF804C0FFF793F89A4A94F830001378974992
:205D800083420293DDF804C0039BCDD1507891F831E003907045C7D191F8320092F802E06B
:205DA0008645C1D1D27891F8331001928A42BBD10098014690F827209DF8080004929DF80F
:205DC0000C2008764A769DF8042081F81AE0CA76049A12BB91F8260091F8242091F822104B
:205DE000121AA2EBD102D2B211445FFA81FE0099D0B281F822E0010644BF5242D0B2009A16
:205E000092F82320A2EB92020244D2B2009802EBDE0180F8241080F8232000994FF0010E18
:205E200091F82400002281F8260089F800E08A837AE799F800106B4AC9077FF558A90193F6
:205E4000009B0020102183F82500117001F0A8FC019BFFF74CB999F80020D1077FF547A91C
:205E6000009C0721002284F8251084F82620FFF73EB930885C4F002840F0758194F835204A
:205E8000D2077FF534A9009F0722002387F82630012087F82520FFF72DF8102389F8003034
:205EA00001F07EFCDBE4308818B10193FFF722F8019B94F8352012F0010259D099F8003027
:205EC000DF0750D500980023072280F8252080F8263083830120FFF70DF8102389F8003042
:205EE00001F05EFCBBE4202285F82500019389F8002001F055FC019BFFF7F9B80EF03F00DD
:205F000002287FF498AC09E70EF03F0012287FF492AC03E799F80020D00707D594F8352059
:205F20002E4902F03F02122A00F0BE802022009389F8002001F034FC3A68002182F8251044
:205F4000009B92E500210A46032000F0B1FFDFF89490FFF782BA022000214FF4A06200F056
:205F6000A7FFFFF7D1B9009A062382F82530B1E799F80010C80740F10681009C0521A283C2
:205F800084F82510FFF7B3B894F83520D1072DD51EF0100F2AD1009A928B002A7FF4A7A869
:205FA0003088013080B2FEF7A5FF99F80030318843F0100289F800200A4A11B143F012036F
:205FC000137001F0EDFB009F012108220023B98387F8252087F82730FFF768BA9C28002085
:205FE00090280020842C00208828002092060DD594F83A7094F83B20DBF80010308842EACB
:2060000007221144821ACBF800103280308880B11EF0100F0DD199F80020029342F0020271
:20602000CDF804C089F80020FEF764FF029BDDF804C094F8360094F83720009902EB00225B
:20604000098C92B28A4202D8002A18BF114699F8002000989707C1833FF449A8DFF838818A
:206060000023CDF800C0A8F8003001F099FBDDF800C0FFF75EB999F80010464ACF072DD578
:20608000009F308803244021002387F825401170BB830028E2D04223CDF800C01370FEF71F
:2060A00029FFDDF800C0D9E791F8342002F0F00150292CD91109053989000022A01890F8E2
:2060C0003C7086461FB3012F4BD0022F0FD09EF83D00E0B102449142F0DC18E094F83520F9
:2060E00002F03F02022A7FF402A8FFF7E8B990F83D70042FEBD190F83E1090F83F20009814
:2061000042EA0122402A28BF4022C283028494F82D700293009B94F82CE05F751F4694F8FC
:206120002E1094F82F40032283F814E0997583F825200120DC75CDF804C0DFF85C80FEF721
:20614000D9FE0022029B4221BA83A8F8002032801A7089F8001001F023FBDDF804C0FFF7DE
:20616000E8B80132B7E70193FEF7C4FE94F83520019B12F0010F7FF486AE3A88002A7FF4CE
:206180006EABFEF7B4BF3288002A7FF468ABFEF7AEBF00BF842C0020A82E0020030C80B2EC
:2061A000020A5BBA9BB242EA002043EA004070472DE9F84302FB0105099F1646A8424FF080
:2061C000000204463A609DF820801DD299464FEAD80807E04946424607F004FC88B1344417
:2061E000AC4207D22378A01C002BF3D13C603444AC42F7D33B68002B14BF01200220BDE83D
:20620000F8833C60BDE8F8830220BDE8F88300BF2DE9F041174D82B0009104460E46904664
:206220001F4601950346032113482022FFF7C0FF01281BD12B68187020682B68D4F804E0A9
:20624000A168E268C3F802002868C3F806E0C3F80A10C3F80E20089B86744361099B80F8E2
:2062600013800777836102B0BDE8F081002002B0BDE8F0812C110020F0300020F8B50C4BD8
:2062800007461C460B4D03F160062B602378A01C2BB1A27C3946D20807F0A4FB28B12034A5
:2062A000B4422C60F2D30020F8BD0120F8BD00BFF03000202C11002010B5094C82B08022A2
:2062C00003468DE81400074803212022FFF770FF10B9206802B010BD002002B010BD00BFA4
:2062E000301100200C3000200E4B30B403F1600148F2FE040C4D05E09A7C824207D02033D1
:206300008B420BD01A78002AF9D0421CF4D15A88A242F4D118462B6030BC70472B6000206B
:2063200030BC70470C30002030110020F0B5114D83B0802203468DE82400044605210E487D
:206340001222FFF735FF012811D12B68187020682A686768A668E168C2F802002868C2F873
:206360000670C2F80A60C2F80E1003B0F0BD002003B0F0BD28110020903000202DE9F0414B
:206380000446254D82B080208DE821000F4690462346224803212022FFF70AFF012837D145
:2063A0002B68187026682B68D4F804E0A168E268C3F802602E68C3F806E0C3F80A10C3F8BA
:2063C0000E2086F81380D7B93075154B0022FF2101200227B0745F70D872197019735A8031
:2063E0009A80DA801A819A72627B18465A73E289DA81FFF79BFF286802B0BDE8F0810023A9
:20640000337506F11800394606F002FC2E68DCE7002002B0BDE8F081301100200C30002054
:206420003411002010B5094C82B0802203468DE81400074805211222FFF7BAFE10B920688F
:2064400002B010BD002002B010BD00BF2811002090300020E8B138B504460E4B0025FF22B7
:20646000022001215870D9721A735D809D80DD801D819D721A70E27B18465A73228ADA811B
:20648000FFF7D0FF044B186000B105700023237038BD7047341100202811002038B5134BDF
:2064A000134C1846236003F1600504E020682030A842206012D20378002BF7D0037D002B21
:2064C000F4D1183006F0ACFB0028EFD02068FFF7C1FF20682030A8422060ECD300F0F2FB0F
:2064E000BDE838400348FDF739B800BF0C300020301100205031002048F2FE0C2DE9F84F91
:206500000B88804663453FD00B78FF2B3CD0354A354F00201346814602F1600E3A6003E091
:20652000203373453B601FD01A78002AF8D09A7C012AF5D15A886245F2D04E1E5D1C0022E9
:2065400016F801AF15F8014F02F1080BA2451FD15FFA8BF2802AF3D191459CBF9146184699
:20656000203373453B60DFD140B350F8024F41688268C368C8F80040C8F80410C8F80820BF
:20658000C8F80C30BDE8F88F0120FFF7ADFEEBE702F1080615468AEA0404F2B2660014F059
:2065A000800F05F1010AF4B21AD15FFA8AF59542F4D191459CBF91461846D1E7A8F8000088
:2065C000A8F80200A8F80400A8F80600A8F80800A8F80A00A8F80C00A8F80E00BDE8F88FF7
:2065E0002A46B9E70C300020301100200B684A688360037AC26083F002030372704700BFC4
:2066000010B5FBF7E7FF0446FBF7E4FF054B24029A68A4B22044B0FBF2F302FB130000EB01
:20662000520010BDF42F00202DE9F041344E82B000F086F800F02CF900216022314807F067
:20664000DDFA30460021F82207F0D8FA2E4C2F492F4B4FF0400818224FF4A065202035609F
:20666000B4601A7086F804800870FFF7C9FF48F2FE0E42F2107C40F2FF27264C00250095BA
:206680000195F060A4F800E041462A462B4620466580A580E580C6F810C03575FFF7B8FD78
:2066A0001D4A04F1080310685168012203C3237A294683F0020320462372FFF75FFE4FF444
:2066C00080732046E3816580A580E58025816581A5812780FFF72AFE4FF400732046278054
:2066E0006580A580E58025816581A581E381FFF71DFE0A480C2102B0BDE8F041FCF724BF27
:20670000F42F0020F0300020C0270900ED300020EC300020341100209428002050310020AB
:2067200050B110B5044601F0CBF9044B2146BDE81040186804F062BE704700BF0C010020B2
:2067400008B504F061FC034B03491868BDE8084004F022BD0C01002021670000F8B50C4A99
:2067600005461E461068079B9DF8182004F08EFD044650B12F686968AA68EB6807604160E4
:206780008260C360467401F09BF92046F8BD00BF0C010020024B0146186804F059BE00BFD0
:2067A0000C01002070B505460C4E306804F042FD8DB1044630B90EE02146306804F002FDC6
:2067C000044640B120462946102207F00BF90028F2D1204670BD002070BD00BF0C010020C5
:2067E000024B0146186804F0EFBD00BF0C01002008B5FFF7D7FF30B1034B01461868BDE8D5
:20680000084004F025BE08BD0C01002070B5054610200C4604F0BEFF0849064604F030FB08
:2068200000B170BD30462946224604F061FB304629462246BDE8704001F012B9ECE10000B2
:206840002DE9F84305460F480F469046FDF702F90446A8B1DFF834900BE0D9F80030284693
:20686000394642466668B0472046FDF759F9044630B1012DF1D80448FDF748F90346EEE7DF
:20688000BDE8F8835C170020F4120020EC12002008B50B4806F0D4F90A48FDF7D7F80A4BC4
:2068A0000A49186804F078FC094806F0C9F90948FDF7CCF8BDE808400748FDF7C7B800BF1D
:2068C00040010020981300203C010020896A000020010020F41200205C17002048B108B58C
:2068E000044A4168106804F0B3FDBDE80840FFF777BF70473C0100200148FDF7ABB800BFF9
:206900009813002008B1FDF70BB9704708B5FFF76FFF38B1044B0146186804F055FD0030EE
